:020000040000FA
:10000000A6EF04F0D9CFE5FFE1CFD9FF00C0E5FFAF
:1000100001C0E5FF02C0E5FF03C0E5FF04C0E5FF46
:1000200005C0E5FF06C0E5FF07C0E5FF08C0E5FF26
:1000300009C0E5FF0AC0E5FF0BC0E5FF0CC0E5FF06
:100040000DC0E5FF0EC0E5FF0FC0E5FF10C0E5FFE6
:1000500011C0E5FF12C0E5FF13C0E5FF14C0E5FFC6
:1000600015C0E5FF16C0E5FF17C0E5FF18C0E5FFA6
:1000700019C0E5FF1AC0E5FF1BC0E5FF1CC0E5FF86
:100080001DC0E5FF020EDBCF00F0030EDBCF01F059
:10009000040EDBCF02F0036A046A056A066A076A87
:1000A000086A096A0A6A0B6A0C6A0D6A0E6A0F6AA4
:1000B000106A116A126A136A146A156A166A176A54
:1000C000186A196A1A6A055000241B6E065001202E
:1000D0001C6EE86A06BEE86802201D6E1BC0E9FFC0
:1000E0001CC0F3FF1D5094EC05F01B6E1B50300A32
:1000F0000EE1680E07241B6E000E08201C6E1BC04C
:10010000E9FF1CC0EAFF000EEE6E000EEF6E055018
:1001100000241B6E065001201C6EE86A06BEE868CB
:1001200002201D6E1BC0E9FF1CC0F3FF1D5094ECA4
:1001300005F01B6E1B50310A0EE1680E09241B6E80
:10014000000E0A201C6E1BC0E9FF1CC0EAFF010E56
:10015000EE6E000EEF6E055000241B6E065001205F
:100160001C6EE86A06BEE86802201D6E1BC0E9FF2F
:100170001CC0F3FF1D5094EC05F01B6E1B50320A9F
:100180000EE1680E0B241B6E000E0C201C6E1BC0B3
:10019000E9FF1CC0EAFF020EEE6E000EEF6E055086
:1001A00000241B6E065001201C6EE86A06BEE8683B
:1001B00002201D6E1BC0E9FF1CC0F3FF1D5094EC14
:1001C00005F01B6E1B50330A0EE1680E0D241B6EEA
:1001D000000E0E201C6E1BC0E9FF1CC0EAFF030EC0
:1001E000EE6E000EEF6E055000241B6E06500120CF
:1001F0001C6EE86A06BEE86802201D6E1BC0E9FF9F
:100200001CC0F3FF1D5094EC05F01B6E1B50340A0C
:100210000EE1680E0F241B6E000E10201C6E1BC01A
:10022000E9FF1CC0EAFF040EEE6E000EEF6E0550F3
:1002300000241B6E065001201C6EE86A06BEE868AA
:1002400002201D6E1BC0E9FF1CC0F3FF1D5094EC83
:1002500005F01B6E1B50350A0EE1680E11241B6E53
:10026000000E12201C6E1BC0E9FF1CC0EAFF050E29
:10027000EE6E000EEF6E055000241B6E065001203E
:100280001C6EE86A06BEE86802201D6E1BC0E9FF0E
:100290001CC0F3FF1D5094EC05F01B6E1B50360A7A
:1002A0000EE1680E13241B6E000E14201C6E1BC082
:1002B000E9FF1CC0EAFF060EEE6E000EEF6E055061
:1002C00000241B6E065001201C6EE86A06BEE8681A
:1002D00002201D6E1BC0E9FF1CC0F3FF1D5094ECF3
:1002E00005F01B6E1B50370A0EE1680E15241B6EBD
:1002F000000E16201C6E1BC0E9FF1CC0EAFF070E93
:10030000EE6E000EEF6E055000241B6E06500120AD
:100310001C6EE86A06BEE86802201D6E1BC0E9FF7D
:100320001CC0F3FF1D5094EC05F01B6E1B50380AE7
:100330000EE1680E17241B6E000E18201C6E1BC0E9
:10034000E9FF1CC0EAFF080EEE6E000EEF6E0550CE
:1003500000241B6E065001201C6EE86A06BEE86889
:1003600002201D6E1BC0E9FF1CC0F3FF1D5094EC62
:1003700005F01B6E1B50390A0EE1680E19241B6E26
:10038000000E1A201C6E1BC0E9FF1CC0EAFF090EFC
:10039000EE6E000EEF6E020E0726D8B0082A020E8F
:1003A0000926D8B00A2A020E0B26D8B00C2A020E53
:1003B0000D26D8B00E2A020E0F26D8B0102A020E33
:1003C0001126D8B0122A020E1326D8B0142A020E13
:1003D0001526D8B0162A020E1726D8B0182A020EF3
:1003E0001926D8B01A2A054A062A0650800F800F0F
:1003F00002E1040E055CD8A066D6006A016A0050CE
:10040000011015E1030EE56EE80EE56E000169517D
:10041000E56E00016851E56E53EC04F0026EF3CF17
:1004200005F0040EE1260250032605500422005078
:10043000010A02E1015001E015D0000EE56E640EE4
:10044000E56E00016B51E56E00016A51E56E53ECFB
:1004500004F0026EF3CF05F0040EE12602500326ED
:10046000055004220050020A02E1015001E015D0BB
:10047000000EE56E0A0EE56E00016D51E56E00019D
:100480006C51E56E53EC04F0026EF3CF05F0040EF0
:10049000E12602500326055004220050030A02E11F
:1004A000015001E015D0000EE56E010EE56E000171
:1004B0006F51E56E00016E51E56E53EC04F0026E73
:1004C000F3CF05F0040EE126025003260550042266
:1004D000004A012A0150800F800F02E1040E005CE7
:1004E000D8A08DD704C0F3FF0350E4CF1DF0E4CFB4
:1004F0001CF0E4CF1BF0E4CF1AF0E4CF19F0E4CF06
:1005000018F0E4CF17F0E4CF16F0E4CF15F0E4CF05
:1005100014F0E4CF13F0E4CF12F0E4CF11F0E4CF05
:1005200010F0E4CF0FF0E4CF0EF0E4CF0DF0E4CF05
:100530000CF0E4CF0BF0E4CF0AF0E4CF09F0E4CF05
:1005400008F0E4CF07F0E4CF06F0E4CF05F0E4CF05
:1005500004F0E4CF03F0E4CF02F0E4CF01F0E4CF05
:1005600000F0E4CFD9FF1200D9CFE5FFE1CFD9FFEA
:1005700000C0E5FF01C0E5FF02C0E5FF03C0E5FFE5
:1005800004C0E5FF05C0E5FF06C0E5FF07C0E5FFC5
:1005900008C0E5FF09C0E5FF020EDBCF00F0030E47
:1005A000DBCF01F0040EDBCF02F03E0EE56E82ECF5
:1005B00005F0E652036A046A600E0324056E000E1D
:1005C0000420066EB5EC05F0076E05C0E9FF06C015
:1005D000EAFF07C0EFFF034A042A0450800F800F90
:1005E00002E1080E035CE8E360C003F00350780A00
:1005F00004E00350790A01E06ED0000161513A0A2B
:1006000001E069D062C003F00350660A04E00350C1
:10061000620A01E060D0000163513A0A01E05BD058
:1006200064C003F00350800F500FD8A054D0035083
:10063000800F460FD8B04FD065C003F00350800F35
:10064000500FD8A048D00350800F460FD8B043D0E9
:1006500066C003F00350800F500FD8A03CD0035069
:10066000800F460F38E267C003F00350800F500F31
:1006700032E30350800F460F2EE2036A046A0350F0
:100680000024056E04500120066EE86A04BEE86886
:100690000220076E600E0324086E000E0420096E0F
:1006A00008C0E9FF09C0EAFFEFCF08F008C0E5FF86
:1006B00005C0E9FF06C0F3FF0750CFEC05F0034A81
:1006C000042A0450800F800F02E1080E035CD7E378
:1006D000F36A010E02D0F36AE86AE4CF09F0E4CFCE
:1006E00008F0E4CF07F0E4CF06F0E4CF05F0E4CF64
:1006F00004F0E4CF03F0E4CF02F0E4CF01F0E4CF64
:1007000000F0E4CFD9FF1200D382D38CD38A0F0E2E
:10071000C16E6DEC05F0936A816A000E016E700E79
:10072000006E800E026E0250E56E0150E56E0050C4
:10073000E56EB4EC02F0006EF3CF01F0030EE1269B
:1007400000500110EAE0000174510001786F0001CF
:1007500075510001796F0001765100017A6F000137
:10076000775100017B6F00017051780A23E100018D
:100770007251660A1FE1000E016E780E006E800E47
:10078000026E0250E56E0150E56E0050E56E02EC1F
:1007900000F0006EF3CF01F0030EE1260150E56E8C
:1007A0000050E56E000EE56E200EE56E3EEC05F0A5
:1007B000040EE12600017051780A23E10001725114
:1007C000620A1FE1000E016E780E006E800E026E4E
:1007D0000250E56E0150E56E0050E56E02EC00F04F
:1007E000006EF3CF01F0030EE1260150E56E0050DC
:1007F000E56E000EE56E100EE56E3EEC05F0040EA3
:10080000E12600017051790A23E100017251660A64
:100810001FE1000E016E780E006E800E026E025017
:10082000E56E0150E56E0050E56E02EC00F0006EE2
:10083000F3CF01F0030EE1260150E56E0050E56EA6
:10084000000EE56E080EE56E3EEC05F0040EE126A6
:1008500000017051790A01E060D700017251620A0B
:1008600001E05BD7000E016E780E006E800E026E06
:100870000250E56E0150E56E0050E56E02EC00F0AE
:10088000006EF3CF01F0030EE1260150E56E00503B
:10089000E56E000EE56E040EE56E3EEC05F0040E0E
:1008A000E1263BD71200D9CFE5FFE1CFD9FF00C049
:1008B000E5FF01C0E5FF02C0E5FF03C0E5FF04C09E
:1008C000E5FF05C0E5FF06C0E5FF07C0E5FF08C07E
:1008D000E5FF09C0E5FF020EDBCF00F0030EDBCF22
:1008E00001F0040EDBCF02F0050EDBCF03F0046A4B
:1008F000056A066A076A0650086E0750096E0150BD
:10090000095C02E10050085C07E202500426035033
:100910000522064A072AEFD705C0F3FF0450E4CFAB
:1009200009F0E4CF08F0E4CF07F0E4CF06F0E4CF1D
:1009300005F0E4CF04F0E4CF03F0E4CF02F0E4CF1D
:1009400001F0E4CF00F0E4CFD9FF120017EEFFF082
:1009500027EEFFF0F86AA68EA69CC40EF66E0B0E6C
:10096000F76E000EF86E0900F5CF05F00900F5CF1F
:1009700006F034D00900F5CF00F00900F5CF01F002
:100980000900F5CF02F009000900F5CFE9FF0900E1
:10099000F5CFEAFF090009000900F5CF03F00900CF
:1009A000F5CF04F009000900F6CF07F0F7CF08F003
:1009B000F8CF09F000C0F6FF01C0F7FF02C0F8FF52
:1009C00003D00900F5CFEEFF0306FBE20406F9E2CF
:1009D00007C0F6FF08C0F7FF09C0F8FF0506CAE226
:1009E0000606C8E284EC03F0FFD7D9CFE5FFE1CFDC
:1009F000D9FF00C0E5FF01C0E5FF02C0E5FF03C06D
:100A0000E5FF04C0E5FF05C0E5FF06C0E5FF07C040
:100A1000E5FF020EDBCF00F0030EDBCF01F0026A30
:100A2000036A046A056A0150055C02E10050045C37
:100A300012E202C006F003C007F0000E075C02E1FC
:100A40000A0E065C03E2064A072AF7D7026A036A1F
:100A5000044A052AE8D7E4CF07F0E4CF06F0E4CF54
:100A600005F0E4CF04F0E4CF03F0E4CF02F0E4CFEC
:100A700001F0E4CF00F0E4CFD9FF1200D9CFE5FFB9
:100A8000E1CFD9FF00C0E5FF01C0E5FF02C0E5FFEF
:100A900003C0E5FF020EDBCF00F0030EDBCF01F059
:100AA000040EDBCF02F0050EDBCF03F0816A0050AD
:100AB000816E0350E56E0250E56EF5EC04F0E652EF
:100AC000E652816AE4CF03F0E4CF02F0E4CF01F014
:100AD000E4CF00F0E4CFD9FF1200D9CFE5FFE1CF9A
:100AE000D9FF190EAF6EAC84B896AC98AB8E9D98BA
:100AF000AC9CAC8A9D9AAB9C948C948EAB88E4CFD2
:100B0000D9FF1200D9CFE5FFE1CFD9FF00C0E5FF43
:100B1000020EDBCF00F09EA8FED700C0ADFFE4CFF1
:100B200000F0E4CFD9FF1200E8AE04D0F3CFEAFF23
:100B3000EE501200E8BCEBEF05F0E9CFF6FFF3CF83
:100B4000F7FFF86E0900F5501200F2CFEAFFF29EAF
:100B5000A69EA69CA684E9CFA9FFE4CFA8FFDAEC65
:100B600005F0A694EABEF28E1200D9CFE5FFE1CFE0
:100B7000D9FFABA202D0AB98AB889EAAFED7AE50ED
:100B8000E4CFD9FF1200F2CFF6FFF29EA69EA69CFC
:100B9000E9CFA9FFA680A850F6BEF28E1200E8AEFB
:100BA00005D0F3CFEAFFE4CFEEFF1200E8BCE9EF97
:100BB00005F01200550EA76EAA0EA76EA682A6B269
:100BC000FED7A94A0100DA0B00007C0000000100FA
:0C0BD0000000A5EF05F0C3EF05F00000E9
:020000040030CA
:0E000000F838D9FEFF7D9AFFFFFFFFFFFFFFDC
:00000001FF
